{
  "contractName": "EtherFund",
  "abi": [
    {
      "constant": true,
      "inputs": [],
      "name": "creator",
      "outputs": [
        {
          "name": "",
          "type": "address"
        }
      ],
      "payable": false,
      "stateMutability": "view",
      "type": "function"
    },
    {
      "constant": true,
      "inputs": [
        {
          "name": "",
          "type": "uint256"
        }
      ],
      "name": "contributions",
      "outputs": [
        {
          "name": "amount",
          "type": "uint256"
        },
        {
          "name": "contributor",
          "type": "address"
        }
      ],
      "payable": false,
      "stateMutability": "view",
      "type": "function"
    },
    {
      "constant": true,
      "inputs": [],
      "name": "raiseBy",
      "outputs": [
        {
          "name": "",
          "type": "uint256"
        }
      ],
      "payable": false,
      "stateMutability": "view",
      "type": "function"
    },
    {
      "constant": true,
      "inputs": [],
      "name": "beneficiary",
      "outputs": [
        {
          "name": "",
          "type": "address"
        }
      ],
      "payable": false,
      "stateMutability": "view",
      "type": "function"
    },
    {
      "constant": true,
      "inputs": [],
      "name": "completeAt",
      "outputs": [
        {
          "name": "",
          "type": "uint256"
        }
      ],
      "payable": false,
      "stateMutability": "view",
      "type": "function"
    },
    {
      "constant": true,
      "inputs": [],
      "name": "campaignId",
      "outputs": [
        {
          "name": "",
          "type": "string"
        }
      ],
      "payable": false,
      "stateMutability": "view",
      "type": "function"
    },
    {
      "constant": true,
      "inputs": [],
      "name": "state",
      "outputs": [
        {
          "name": "",
          "type": "uint8"
        }
      ],
      "payable": false,
      "stateMutability": "view",
      "type": "function"
    },
    {
      "constant": true,
      "inputs": [],
      "name": "totalRaised",
      "outputs": [
        {
          "name": "",
          "type": "uint256"
        }
      ],
      "payable": false,
      "stateMutability": "view",
      "type": "function"
    },
    {
      "constant": true,
      "inputs": [],
      "name": "currentBalance",
      "outputs": [
        {
          "name": "",
          "type": "uint256"
        }
      ],
      "payable": false,
      "stateMutability": "view",
      "type": "function"
    },
    {
      "constant": true,
      "inputs": [],
      "name": "target",
      "outputs": [
        {
          "name": "",
          "type": "uint256"
        }
      ],
      "payable": false,
      "stateMutability": "view",
      "type": "function"
    },
    {
      "inputs": [
        {
          "name": "timeInDaysForFundraising",
          "type": "uint256"
        },
        {
          "name": "_campaignId",
          "type": "string"
        },
        {
          "name": "_beneficiary",
          "type": "address"
        },
        {
          "name": "_target",
          "type": "uint256"
        }
      ],
      "payable": false,
      "stateMutability": "nonpayable",
      "type": "constructor"
    },
    {
      "payable": false,
      "stateMutability": "nonpayable",
      "type": "fallback"
    },
    {
      "anonymous": false,
      "inputs": [
        {
          "indexed": false,
          "name": "addr",
          "type": "address"
        },
        {
          "indexed": false,
          "name": "amount",
          "type": "uint256"
        },
        {
          "indexed": false,
          "name": "currentTotal",
          "type": "uint256"
        }
      ],
      "name": "LogFundingReceived",
      "type": "event"
    },
    {
      "anonymous": false,
      "inputs": [
        {
          "indexed": false,
          "name": "winnerAddress",
          "type": "address"
        }
      ],
      "name": "LogWinnerPaid",
      "type": "event"
    },
    {
      "anonymous": false,
      "inputs": [
        {
          "indexed": false,
          "name": "creator",
          "type": "address"
        },
        {
          "indexed": false,
          "name": "beneficiary",
          "type": "address"
        },
        {
          "indexed": false,
          "name": "_campaignId",
          "type": "string"
        },
        {
          "indexed": false,
          "name": "_target",
          "type": "uint256"
        },
        {
          "indexed": false,
          "name": "raiseby",
          "type": "uint256"
        }
      ],
      "name": "LogFunderInitialized",
      "type": "event"
    },
    {
      "constant": false,
      "inputs": [],
      "name": "contribute",
      "outputs": [
        {
          "name": "",
          "type": "uint256"
        }
      ],
      "payable": true,
      "stateMutability": "payable",
      "type": "function"
    },
    {
      "constant": true,
      "inputs": [],
      "name": "getBackerCount",
      "outputs": [
        {
          "name": "count",
          "type": "uint256"
        }
      ],
      "payable": false,
      "stateMutability": "view",
      "type": "function"
    },
    {
      "constant": false,
      "inputs": [],
      "name": "checkIfFundingCompleteOrExpired",
      "outputs": [],
      "payable": false,
      "stateMutability": "nonpayable",
      "type": "function"
    },
    {
      "constant": false,
      "inputs": [],
      "name": "payOut",
      "outputs": [],
      "payable": false,
      "stateMutability": "nonpayable",
      "type": "function"
    },
    {
      "constant": false,
      "inputs": [
        {
          "name": "id",
          "type": "uint256"
        }
      ],
      "name": "getRefund",
      "outputs": [
        {
          "name": "",
          "type": "bool"
        }
      ],
      "payable": false,
      "stateMutability": "nonpayable",
      "type": "function"
    },
    {
      "constant": false,
      "inputs": [],
      "name": "removeContract",
      "outputs": [],
      "payable": false,
      "stateMutability": "nonpayable",
      "type": "function"
    }
  ],
  "bytecode": "0x60606040526000600460006101000a81548160ff0219169083600381111561002357fe5b0217905550341561003357600080fd5b60405162000fc438038062000fc483398101604052808051906020019091908051820191906020018051906020019091908051906020019091905050336000806101000a81548173ffffffffffffffffffffffffffffffffffffffff021916908373ffffffffffffffffffffffffffffffffffffffff16021790555081600160006101000a81548173ffffffffffffffffffffffffffffffffffffffff021916908373ffffffffffffffffffffffffffffffffffffffff16021790555082600390805190602001906101069291906102b0565b50670de0b6b3a76400008102600281905550620151808402420160078190555060006006819055507f8162f6314365078618b76691719ca4f4c7ab1b30cd94a9f1e2bd2fffb3958e676000809054906101000a900473ffffffffffffffffffffffffffffffffffffffff16600160009054906101000a900473ffffffffffffffffffffffffffffffffffffffff166003600254600754604051808673ffffffffffffffffffffffffffffffffffffffff1673ffffffffffffffffffffffffffffffffffffffff1681526020018573ffffffffffffffffffffffffffffffffffffffff1673ffffffffffffffffffffffffffffffffffffffff168152602001806020018481526020018381526020018281038252858181546001816001161561010002031660029004815260200191508054600181600116156101000203166002900480156102955780601f1061026a57610100808354040283529160200191610295565b820191906000526020600020905b81548152906001019060200180831161027857829003601f168201915b5050965050505050505060405180910390a150505050610355565b828054600181600116156101000203166002900490600052602060002090601f016020900481019282601f106102f157805160ff191683800117855561031f565b8280016001018555821561031f579182015b8281111561031e578251825591602001919060010190610303565b5b50905061032c9190610330565b5090565b61035291905b8082111561034e576000816000905550600101610336565b5090565b90565b610c5f80620003656000396000f3006060604052600436106100e6576000357c0100000000000000000000000000000000000000000000000000000000900463ffffffff16806302d05d3f146100f65780631cee07001461014b57806337f944cc146101b557806338af3eed146101de5780634c4cea5a146102335780636162f17e1461025c57806386f32586146102855780638ed5b0fc1461029a578063c19d93fb14610328578063c20524031461035f578063c5c4744c14610374578063ce845d1d1461039d578063d2f0be99146103c6578063d4b8399214610401578063d7bb99ba1461042a578063fe389e0914610448575b34156100f157600080fd5b600080fd5b341561010157600080fd5b61010961045d565b604051808273ffffffffffffffffffffffffffffffffffffffff1673ffffffffffffffffffffffffffffffffffffffff16815260200191505060405180910390f35b341561015657600080fd5b61016c6004808035906020019091905050610482565b604051808381526020018273ffffffffffffffffffffffffffffffffffffffff1673ffffffffffffffffffffffffffffffffffffffff1681526020019250505060405180910390f35b34156101c057600080fd5b6101c86104d5565b6040518082815260200191505060405180910390f35b34156101e957600080fd5b6101f16104db565b604051808273ffffffffffffffffffffffffffffffffffffffff1673ffffffffffffffffffffffffffffffffffffffff16815260200191505060405180910390f35b341561023e57600080fd5b610246610501565b6040518082815260200191505060405180910390f35b341561026757600080fd5b61026f610507565b6040518082815260200191505060405180910390f35b341561029057600080fd5b610298610514565b005b34156102a557600080fd5b6102ad61058a565b6040518080602001828103825283818151815260200191508051906020019080838360005b838110156102ed5780820151818401526020810190506102d2565b50505050905090810190601f16801561031a5780820380516001836020036101000a031916815260200191505b509250505060405180910390f35b341561033357600080fd5b61033b610628565b6040518082600381111561034b57fe5b60ff16815260200191505060405180910390f35b341561036a57600080fd5b61037261063b565b005b341561037f57600080fd5b61038761079d565b6040518082815260200191505060405180910390f35b34156103a857600080fd5b6103b06107a3565b6040518082815260200191505060405180910390f35b34156103d157600080fd5b6103e760048080359060200190919050506107a9565b604051808215151515815260200191505060405180910390f35b341561040c57600080fd5b610414610941565b6040518082815260200191505060405180910390f35b610432610947565b6040518082815260200191505060405180910390f35b341561045357600080fd5b61045b610aca565b005b6000809054906101000a900473ffffffffffffffffffffffffffffffffffffffff1681565b60098181548110151561049157fe5b90600052602060002090600202016000915090508060000154908060010160009054906101000a900473ffffffffffffffffffffffffffffffffffffffff16905082565b60075481565b600160009054906101000a900473ffffffffffffffffffffffffffffffffffffffff1681565b60085481565b6000600980549050905090565b6002546005541115610551576002600460006101000a81548160ff0219169083600381111561053f57fe5b021790555061054c61063b565b610581565b600754421115610580576001600460006101000a81548160ff0219169083600381111561057a57fe5b02179055505b5b42600881905550565b60038054600181600116156101000203166002900480601f0160208091040260200160405190810160405280929190818152602001828054600181600116156101000203166002900480156106205780601f106105f557610100808354040283529160200191610620565b820191906000526020600020905b81548152906001019060200180831161060357829003601f168201915b505050505081565b600460009054906101000a900460ff1681565b600280600381111561064957fe5b600460009054906101000a900460ff16600381111561066457fe5b14151561067057600080fd5b600160009054906101000a900473ffffffffffffffffffffffffffffffffffffffff1673ffffffffffffffffffffffffffffffffffffffff166108fc3073ffffffffffffffffffffffffffffffffffffffff16319081150290604051600060405180830381858888f1935050505015156106e957600080fd5b6003600460006101000a81548160ff0219169083600381111561070857fe5b021790555060006006819055507fcc2a9192e91e4dd58845fd890b297de7bfda33e9f07f14bb2e4fe2237c86723d600160009054906101000a900473ffffffffffffffffffffffffffffffffffffffff16604051808273ffffffffffffffffffffffffffffffffffffffff1673ffffffffffffffffffffffffffffffffffffffff16815260200191505060405180910390a150565b60055481565b60065481565b60008060018060038111156107ba57fe5b600460009054906101000a900460ff1660038111156107d557fe5b1415156107e157600080fd5b836009805490501115806107f55750600084105b806108205750600060098581548110151561080c57fe5b906000526020600020906002020160000154145b1561082a57600080fd5b60098481548110151561083957fe5b9060005260206000209060020201600001549150600060098581548110151561085e57fe5b90600052602060002090600202016000018190555060098481548110151561088257fe5b906000526020600020906002020160010160009054906101000a900473ffffffffffffffffffffffffffffffffffffffff1673ffffffffffffffffffffffffffffffffffffffff166108fc839081150290604051600060405180830381858888f19350505050151561091c57816009858154811015156108fe57fe5b9060005260206000209060020201600001819055506000925061093a565b81600560008282540392505081905550600554600681905550600192505b5050919050565b60025481565b60008080600381111561095657fe5b600460009054906101000a900460ff16600381111561097157fe5b14151561097d57600080fd5b600980548060010182816109919190610bb3565b9160005260206000209060020201600060408051908101604052803481526020013373ffffffffffffffffffffffffffffffffffffffff1681525090919091506000820151816000015560208201518160010160006101000a81548173ffffffffffffffffffffffffffffffffffffffff021916908373ffffffffffffffffffffffffffffffffffffffff160217905550505050346005600082825401925050819055506005546006819055507f304e48bb03eae5e9bf3575d270648664895983e116a51773a65e9f3341b3b40e3334600554604051808473ffffffffffffffffffffffffffffffffffffffff1673ffffffffffffffffffffffffffffffffffffffff168152602001838152602001828152602001935050505060405180910390a1610abb610514565b60016009805490500391505090565b6000809054906101000a900473ffffffffffffffffffffffffffffffffffffffff1673ffffffffffffffffffffffffffffffffffffffff163373ffffffffffffffffffffffffffffffffffffffff16141515610b2557600080fd5b60016003811115610b3257fe5b600460009054906101000a900460ff166003811115610b4d57fe5b1480610b7e575060026003811115610b6157fe5b600460009054906101000a900460ff166003811115610b7c57fe5b145b8015610b8f575042610e1060085401105b1515610b9a57600080fd5b3373ffffffffffffffffffffffffffffffffffffffff16ff5b815481835581811511610be057600202816002028360005260206000209182019101610bdf9190610be5565b5b505050565b610c3091905b80821115610c2c576000808201600090556001820160006101000a81549073ffffffffffffffffffffffffffffffffffffffff021916905550600201610beb565b5090565b905600a165627a7a723058204abb754f3a67816707f4ca66ecaf63bad33899598b64ab2949b7576ece15124a0029",
  "source": "pragma solidity ^0.4.17;\n\ncontract EtherFund {\n\n    address public creator;\n    address public beneficiary; // creator may be different than recipient\n    uint public target; // required to reach at least this much, else everyone gets refund\n    string public campaignId;\n\n    // Data structures\n    enum State {\n        Fundraising,\n        ExpiredRefund,\n        Successful,\n        Closed\n    }\n\n    struct Contribution {\n        uint amount;\n        address contributor;\n    }\n\n    // State variables\n    State public state = State.Fundraising; // initialize on create\n    uint public totalRaised;\n    uint public currentBalance;\n    uint public raiseBy;\n    uint public completeAt;\n    Contribution[] public contributions;\n\n    event LogFundingReceived(address addr, uint amount, uint currentTotal);\n    event LogWinnerPaid(address winnerAddress);\n    event LogFunderInitialized(\n        address creator,\n        address beneficiary,\n        string _campaignId,\n        uint _target,\n        uint256 raiseby\n    );\n\n    modifier inState(State _state) {\n        require (state == _state);\n        _;\n    }\n\n    modifier isCreator() {\n        require (msg.sender == creator);\n        _;\n    }\n\n    // Wait 1 hour after final contract state before allowing contract destruction\n    modifier atEndOfLifecycle() {\n        require((state == State.ExpiredRefund || state == State.Successful) && completeAt + 1 hours < now);\n        _;\n    }\n\n    function EtherFund(\n        uint timeInDaysForFundraising,\n        string _campaignId,\n        address _beneficiary,\n        uint _target) public\n    {\n        creator = msg.sender;\n        beneficiary = _beneficiary;\n        campaignId = _campaignId;\n        target = _target * 1000000000000000000; //convert to wei\n        raiseBy = now + (timeInDaysForFundraising * 24 hours);\n        currentBalance = 0;\n        emit LogFunderInitialized(\n            creator,\n            beneficiary,\n            campaignId,\n            target,\n            raiseBy);\n    }\n\n    function contribute()\n    public\n    inState(State.Fundraising) payable returns (uint256)\n    {\n        contributions.push(\n            Contribution({\n                amount: msg.value,\n                contributor: msg.sender\n                }) // use array, so can iterate\n            );\n        totalRaised += msg.value;\n        currentBalance = totalRaised;\n        emit LogFundingReceived(msg.sender, msg.value, totalRaised);\n\n        checkIfFundingCompleteOrExpired();\n        return contributions.length - 1; // return id\n    }\n    \n    function getBackerCount() public constant returns(uint count) {\n        return contributions.length;\n    }\n\n    function checkIfFundingCompleteOrExpired() public {\n        if (totalRaised > target) {\n            state = State.Successful;\n            payOut();\n\n            // could incentivize sender who initiated state change here\n        } else if ( now > raiseBy ) {\n            state = State.ExpiredRefund; // backers can now collect refunds by calling getRefund(id)\n        }\n        completeAt = now;\n    }\n\n    function payOut()\n    public\n    inState(State.Successful)\n    {\n        if(!beneficiary.send(address(this).balance)) {\n            revert();\n        }\n        state = State.Closed;\n        currentBalance = 0;\n        emit LogWinnerPaid(beneficiary);\n    }\n\n    function getRefund(uint256 id)\n    public\n    inState(State.ExpiredRefund)\n    returns (bool)\n    {\n        if (contributions.length <= id || id < 0 || contributions[id].amount == 0 ) {\n            revert();\n        }\n\n        uint amountToRefund = contributions[id].amount;\n        contributions[id].amount = 0;\n\n        if(!contributions[id].contributor.send(amountToRefund)) {\n            contributions[id].amount = amountToRefund;\n            return false;\n        }\n        else{\n            totalRaised -= amountToRefund;\n            currentBalance = totalRaised;\n        }\n\n        return true;\n    }\n\n    function removeContract()\n    public\n    isCreator()\n    atEndOfLifecycle()\n    {\n        selfdestruct(msg.sender);\n        // creator gets all money that hasn't be claimed\n    }\n\n    function () public { revert(); }\n}\n",
  "sourcePath": "/Users/LC/Desktop/code/truffle/smart_contract/contracts/EtherFund.sol",
  "compiler": {
    "name": "solc",
    "version": "0.4.21+commit.dfe3193c.Emscripten.clang"
  },
  "schemaVersion": "2.0.0",
  "updatedAt": "2018-04-16T03:06:30.555Z"
}